{
  "contractName": "Faucet",
  "abi": [
    {
      "inputs": [
        {
          "internalType": "address",
          "name": "",
          "type": "address"
        }
      ],
      "name": "funders",
      "outputs": [
        {
          "internalType": "bool",
          "name": "",
          "type": "bool"
        }
      ],
      "stateMutability": "view",
      "type": "function",
      "constant": true
    },
    {
      "inputs": [
        {
          "internalType": "uint256",
          "name": "",
          "type": "uint256"
        }
      ],
      "name": "lutFunders",
      "outputs": [
        {
          "internalType": "address",
          "name": "",
          "type": "address"
        }
      ],
      "stateMutability": "view",
      "type": "function",
      "constant": true
    },
    {
      "inputs": [],
      "name": "numOfFunders",
      "outputs": [
        {
          "internalType": "uint256",
          "name": "",
          "type": "uint256"
        }
      ],
      "stateMutability": "view",
      "type": "function",
      "constant": true
    },
    {
      "inputs": [],
      "name": "owner",
      "outputs": [
        {
          "internalType": "address",
          "name": "",
          "type": "address"
        }
      ],
      "stateMutability": "view",
      "type": "function",
      "constant": true
    },
    {
      "inputs": [],
      "name": "test3",
      "outputs": [
        {
          "internalType": "uint256",
          "name": "",
          "type": "uint256"
        }
      ],
      "stateMutability": "pure",
      "type": "function",
      "constant": true
    },
    {
      "inputs": [],
      "name": "testNum",
      "outputs": [
        {
          "internalType": "uint256",
          "name": "",
          "type": "uint256"
        }
      ],
      "stateMutability": "view",
      "type": "function",
      "constant": true
    },
    {
      "stateMutability": "payable",
      "type": "receive",
      "payable": true
    },
    {
      "inputs": [],
      "name": "emitLog",
      "outputs": [
        {
          "internalType": "bytes32",
          "name": "",
          "type": "bytes32"
        }
      ],
      "stateMutability": "pure",
      "type": "function",
      "constant": true
    },
    {
      "inputs": [
        {
          "internalType": "address",
          "name": "newOwner",
          "type": "address"
        }
      ],
      "name": "transferOwnership",
      "outputs": [],
      "stateMutability": "nonpayable",
      "type": "function"
    },
    {
      "inputs": [],
      "name": "addFunds",
      "outputs": [],
      "stateMutability": "payable",
      "type": "function",
      "payable": true
    },
    {
      "inputs": [],
      "name": "test1",
      "outputs": [],
      "stateMutability": "nonpayable",
      "type": "function"
    },
    {
      "inputs": [],
      "name": "test2",
      "outputs": [],
      "stateMutability": "nonpayable",
      "type": "function"
    },
    {
      "inputs": [
        {
          "internalType": "uint256",
          "name": "withdrawAmount",
          "type": "uint256"
        }
      ],
      "name": "withdraw",
      "outputs": [],
      "stateMutability": "nonpayable",
      "type": "function"
    },
    {
      "inputs": [],
      "name": "getAllFUnders",
      "outputs": [
        {
          "internalType": "address[]",
          "name": "",
          "type": "address[]"
        }
      ],
      "stateMutability": "view",
      "type": "function",
      "constant": true
    },
    {
      "inputs": [
        {
          "internalType": "uint8",
          "name": "index",
          "type": "uint8"
        }
      ],
      "name": "getFunderAtIndex",
      "outputs": [
        {
          "internalType": "address",
          "name": "",
          "type": "address"
        }
      ],
      "stateMutability": "view",
      "type": "function",
      "constant": true
    }
  ],
  "bytecode": "0x608060405234801561001057600080fd5b50336000806101000a81548173ffffffffffffffffffffffffffffffffffffffff021916908373ffffffffffffffffffffffffffffffffffffffff1602179055506103e8600181905550610df7806100696000396000f3fe6080604052600436106100e15760003560e01c80636b59084d1161007f578063ae28f1ed11610059578063ae28f1ed14610286578063af7f2c9b146102b1578063f2fde38b146102dc578063f42c13bf14610305576100e8565b80636b59084d1461023a5780638da5cb5b14610251578063a26759cb1461027c576100e8565b80631377a736116100bb5780631377a736146101925780631f8947ea146101bd5780632e1a7d4d146101fa57806366e41cb714610223576100e8565b8063031b3677146100ed5780630a8e8e011461012a5780630a93cf3314610155576100e8565b366100e857005b600080fd5b3480156100f957600080fd5b50610114600480360381019061010f9190610923565b610330565b604051610121919061096b565b60405180910390f35b34801561013657600080fd5b5061013f610350565b60405161014c919061099f565b60405180910390f35b34801561016157600080fd5b5061017c600480360381019061017791906109f3565b610359565b6040516101899190610a2f565b60405180910390f35b34801561019e57600080fd5b506101a7610399565b6040516101b49190610b08565b60405180910390f35b3480156101c957600080fd5b506101e460048036038101906101df9190610b56565b610493565b6040516101f19190610a2f565b60405180910390f35b34801561020657600080fd5b50610221600480360381019061021c9190610b56565b6104c6565b005b34801561022f57600080fd5b5061023861055d565b005b34801561024657600080fd5b5061024f6105ed565b005b34801561025d57600080fd5b5061026661067d565b6040516102739190610a2f565b60405180910390f35b6102846106a1565b005b34801561029257600080fd5b5061029b6107bb565b6040516102a8919061099f565b60405180910390f35b3480156102bd57600080fd5b506102c66107c1565b6040516102d3919061099f565b60405180910390f35b3480156102e857600080fd5b5061030360048036038101906102fe9190610923565b6107c7565b005b34801561031157600080fd5b5061031a610898565b6040516103279190610b9c565b60405180910390f35b60036020528060005260406000206000915054906101000a900460ff1681565b60006064905090565b6000600460008360ff16815260200190815260200160002060009054906101000a900473ffffffffffffffffffffffffffffffffffffffff169050919050565b6060600060025467ffffffffffffffff8111156103b9576103b8610bb7565b5b6040519080825280602002602001820160405280156103e75781602001602082028036833780820191505090505b50905060005b60025481101561048b576004600082815260200190815260200160002060009054906101000a900473ffffffffffffffffffffffffffffffffffffffff1682828151811061043e5761043d610be6565b5b602002602001019073ffffffffffffffffffffffffffffffffffffffff16908173ffffffffffffffffffffffffffffffffffffffff1681525050808061048390610c44565b9150506103ed565b508091505090565b60046020528060005260406000206000915054906101000a900473ffffffffffffffffffffffffffffffffffffffff1681565b80670de0b6b3a7640000811115610512576040517f08c379a000000000000000000000000000000000000000000000000000000000815260040161050990610d0f565b60405180910390fd5b3373ffffffffffffffffffffffffffffffffffffffff166108fc839081150290604051600060405180830381858888f19350505050158015610558573d6000803e3d6000fd5b505050565b3373ffffffffffffffffffffffffffffffffffffffff1660008054906101000a900473ffffffffffffffffffffffffffffffffffffffff1673ffffffffffffffffffffffffffffffffffffffff16146105eb576040517f08c379a00000000000000000000000000000000000000000000000000000000081526004016105e290610da1565b60405180910390fd5b565b3373ffffffffffffffffffffffffffffffffffffffff1660008054906101000a900473ffffffffffffffffffffffffffffffffffffffff1673ffffffffffffffffffffffffffffffffffffffff161461067b576040517f08c379a000000000000000000000000000000000000000000000000000000000815260040161067290610da1565b60405180910390fd5b565b60008054906101000a900473ffffffffffffffffffffffffffffffffffffffff1681565b6000339050600360008273ffffffffffffffffffffffffffffffffffffffff1673ffffffffffffffffffffffffffffffffffffffff16815260200190815260200160002060009054906101000a900460ff166107b8576001600360008373ffffffffffffffffffffffffffffffffffffffff1673ffffffffffffffffffffffffffffffffffffffff16815260200190815260200160002060006101000a81548160ff02191690831515021790555080600460006002600081548092919061076790610c44565b91905055815260200190815260200160002060006101000a81548173ffffffffffffffffffffffffffffffffffffffff021916908373ffffffffffffffffffffffffffffffffffffffff1602179055505b50565b60015481565b60025481565b3373ffffffffffffffffffffffffffffffffffffffff1660008054906101000a900473ffffffffffffffffffffffffffffffffffffffff1673ffffffffffffffffffffffffffffffffffffffff1614610855576040517f08c379a000000000000000000000000000000000000000000000000000000000815260040161084c90610da1565b60405180910390fd5b806000806101000a81548173ffffffffffffffffffffffffffffffffffffffff021916908373ffffffffffffffffffffffffffffffffffffffff16021790555050565b60007f48656c6c6f20776f726c64000000000000000000000000000000000000000000905090565b600080fd5b600073ffffffffffffffffffffffffffffffffffffffff82169050919050565b60006108f0826108c5565b9050919050565b610900816108e5565b811461090b57600080fd5b50565b60008135905061091d816108f7565b92915050565b600060208284031215610939576109386108c0565b5b60006109478482850161090e565b91505092915050565b60008115159050919050565b61096581610950565b82525050565b6000602082019050610980600083018461095c565b92915050565b6000819050919050565b61099981610986565b82525050565b60006020820190506109b46000830184610990565b92915050565b600060ff82169050919050565b6109d0816109ba565b81146109db57600080fd5b50565b6000813590506109ed816109c7565b92915050565b600060208284031215610a0957610a086108c0565b5b6000610a17848285016109de565b91505092915050565b610a29816108e5565b82525050565b6000602082019050610a446000830184610a20565b92915050565b600081519050919050565b600082825260208201905092915050565b6000819050602082019050919050565b610a7f816108e5565b82525050565b6000610a918383610a76565b60208301905092915050565b6000602082019050919050565b6000610ab582610a4a565b610abf8185610a55565b9350610aca83610a66565b8060005b83811015610afb578151610ae28882610a85565b9750610aed83610a9d565b925050600181019050610ace565b5085935050505092915050565b60006020820190508181036000830152610b228184610aaa565b905092915050565b610b3381610986565b8114610b3e57600080fd5b50565b600081359050610b5081610b2a565b92915050565b600060208284031215610b6c57610b6b6108c0565b5b6000610b7a84828501610b41565b91505092915050565b6000819050919050565b610b9681610b83565b82525050565b6000602082019050610bb16000830184610b8d565b92915050565b7f4e487b7100000000000000000000000000000000000000000000000000000000600052604160045260246000fd5b7f4e487b7100000000000000000000000000000000000000000000000000000000600052603260045260246000fd5b7f4e487b7100000000000000000000000000000000000000000000000000000000600052601160045260246000fd5b6000610c4f82610986565b91507fffffffffffffffffffffffffffffffffffffffffffffffffffffffffffffffff8203610c8157610c80610c15565b5b600182019050919050565b600082825260208201905092915050565b7f43616e6e6f74207769746864726177206d6f7265207468656e2031206574686560008201527f7200000000000000000000000000000000000000000000000000000000000000602082015250565b6000610cf9602183610c8c565b9150610d0482610c9d565b604082019050919050565b60006020820190508181036000830152610d2881610cec565b9050919050565b7f4f6e6c79206f776e65722063616e2063616c6c20746869732066756e6374696f60008201527f6e00000000000000000000000000000000000000000000000000000000000000602082015250565b6000610d8b602183610c8c565b9150610d9682610d2f565b604082019050919050565b60006020820190508181036000830152610dba81610d7e565b905091905056fea26469706673582212201f41ed57fc61f2b6e209ef332c5035b73055822c8f9d8d1b60a14e80b127375764736f6c63430008130033",
  "immutableReferences": {},
  "source": "// SPDX-License-Identifier: MIT\npragma solidity >=0.4.22 <0.9.0;\n\nimport \"./Owned.sol\";\nimport \"./Logger.sol\";\nimport \"./IFaucet.sol\";\n\ncontract Faucet is Owned, Logger, IFaucet {\n    uint public numOfFunders;\n    mapping(address => bool) public funders;\n    mapping(uint => address) public lutFunders;\n\n    modifier limitWithdraw(uint withdrawAmount) {\n        require(withdrawAmount <= 1 ether, \"Cannot withdraw more then 1 ether\");\n        _;\n    }\n\n    function emitLog() public override pure returns (bytes32) {\n        return \"Hello world\";\n    }\n\n    receive() external payable {}\n\n    function transferOwnership(address newOwner) external onlyOwner {\n        owner = newOwner;\n    }\n\n    function addFunds() external payable {\n        address funder = msg.sender;\n        if (!funders[funder]) {\n            funders[funder] = true;\n            lutFunders[numOfFunders++] = funder;\n        }\n    }\n\n    function test1() external onlyOwner {}\n\n    function test2() external onlyOwner {}\n\n    function withdraw(uint withdrawAmount) external limitWithdraw(withdrawAmount) {\n        payable(msg.sender).transfer(withdrawAmount);\n    }\n\n    function getAllFUnders() external view returns (address[] memory) {\n        address[] memory _funders = new address[](numOfFunders);\n\n        for (uint i = 0; i < numOfFunders; i++) {\n            _funders[i] = lutFunders[i];\n        }\n\n        return _funders;\n    }\n\n    function getFunderAtIndex(uint8 index) external view returns (address) {\n        return lutFunders[index];\n    }\n}\n\n//const instance = await Faucet.deployed()\n//instance.addFunds({value: \"2000000\", from: accounts[0]})",
  "sourcePath": "/home/nina/Desktop/master-projekat/storing-medical-files-on-blockchain/fe-app/truffle/contracts/FaucetContract.sol",
  "compiler": {
    "name": "solc",
    "version": "0.8.19+commit.7dd6d404.Emscripten.clang"
  },
  "schemaVersion": "3.4.16",
  "updatedAt": "2023-10-22T11:21:05.043Z",
  "networkType": "ethereum",
  "devdoc": {
    "kind": "dev",
    "methods": {},
    "version": 1
  },
  "userdoc": {
    "kind": "user",
    "methods": {},
    "version": 1
  }
}