{
  "contractName": "File",
  "abi": [
    {
      "inputs": [],
      "stateMutability": "nonpayable",
      "type": "constructor"
    },
    {
      "inputs": [
        {
          "internalType": "string",
          "name": "",
          "type": "string"
        }
      ],
      "name": "files",
      "outputs": [
        {
          "internalType": "string",
          "name": "",
          "type": "string"
        }
      ],
      "stateMutability": "view",
      "type": "function",
      "constant": true
    },
    {
      "inputs": [
        {
          "internalType": "uint256",
          "name": "",
          "type": "uint256"
        }
      ],
      "name": "mapKeys",
      "outputs": [
        {
          "internalType": "string",
          "name": "",
          "type": "string"
        }
      ],
      "stateMutability": "view",
      "type": "function",
      "constant": true
    },
    {
      "inputs": [],
      "name": "owner",
      "outputs": [
        {
          "internalType": "address",
          "name": "",
          "type": "address"
        }
      ],
      "stateMutability": "view",
      "type": "function",
      "constant": true
    },
    {
      "inputs": [
        {
          "internalType": "address",
          "name": "newOwner",
          "type": "address"
        }
      ],
      "name": "transferOwnership",
      "outputs": [],
      "stateMutability": "nonpayable",
      "type": "function"
    },
    {
      "inputs": [
        {
          "internalType": "string",
          "name": "cid",
          "type": "string"
        },
        {
          "internalType": "string",
          "name": "filename",
          "type": "string"
        }
      ],
      "name": "saveCID",
      "outputs": [],
      "stateMutability": "nonpayable",
      "type": "function"
    },
    {
      "inputs": [],
      "name": "getFiles",
      "outputs": [
        {
          "internalType": "string[]",
          "name": "",
          "type": "string[]"
        },
        {
          "internalType": "string[]",
          "name": "",
          "type": "string[]"
        }
      ],
      "stateMutability": "view",
      "type": "function",
      "constant": true
    },
    {
      "inputs": [
        {
          "internalType": "string",
          "name": "cid",
          "type": "string"
        }
      ],
      "name": "deleteFile",
      "outputs": [],
      "stateMutability": "nonpayable",
      "type": "function"
    }
  ],
  "bytecode": "0x608060405234801561001057600080fd5b50336000806101000a81548173ffffffffffffffffffffffffffffffffffffffff021916908373ffffffffffffffffffffffffffffffffffffffff1602179055506115ad806100606000396000f3fe608060405234801561001057600080fd5b506004361061007d5760003560e01c80638da5cb5b1161005b5780638da5cb5b146100ed578063a99100541461010b578063e775576114610127578063f2fde38b146101575761007d565b806320e54b96146100825780632da96d73146100b2578063620403ad146100d1575b600080fd5b61009c60048036038101906100979190610959565b610173565b6040516100a99190610a16565b60405180910390f35b6100ba61021f565b6040516100c8929190610b44565b60405180910390f35b6100eb60048036038101906100e69190610cb0565b61045e565b005b6100f5610530565b6040516101029190610d69565b60405180910390f35b61012560048036038101906101209190610d84565b610554565b005b610141600480360381019061013c9190610d84565b61072b565b60405161014e9190610a16565b60405180910390f35b610171600480360381019061016c9190610df9565b6107e1565b005b6002818154811061018357600080fd5b90600052602060002001600091509050805461019e90610e55565b80601f01602080910402602001604051908101604052809291908181526020018280546101ca90610e55565b80156102175780601f106101ec57610100808354040283529160200191610217565b820191906000526020600020905b8154815290600101906020018083116101fa57829003601f168201915b505050505081565b606080600060028054905067ffffffffffffffff81111561024357610242610b85565b5b60405190808252806020026020018201604052801561027657816020015b60608152602001906001900390816102615790505b50905060005b60028054905081101561037e5760016002828154811061029f5761029e610e86565b5b906000526020600020016040516102b69190610f58565b908152602001604051809103902080546102cf90610e55565b80601f01602080910402602001604051908101604052809291908181526020018280546102fb90610e55565b80156103485780601f1061031d57610100808354040283529160200191610348565b820191906000526020600020905b81548152906001019060200180831161032b57829003601f168201915b50505050508282815181106103605761035f610e86565b5b6020026020010181905250808061037690610f9e565b91505061027c565b5060028181805480602002602001604051908101604052809291908181526020016000905b8282101561044f5783829060005260206000200180546103c290610e55565b80601f01602080910402602001604051908101604052809291908181526020018280546103ee90610e55565b801561043b5780601f106104105761010080835404028352916020019161043b565b820191906000526020600020905b81548152906001019060200180831161041e57829003601f168201915b5050505050815260200190600101906103a3565b50505050915092509250509091565b60006001836040516104709190611017565b9081526020016040518091039020805461048990610e55565b9050146104cb576040517f08c379a00000000000000000000000000000000000000000000000000000000081526004016104c29061107a565b60405180910390fd5b806001836040516104dc9190611017565b908152602001604051809103902090816104f69190611231565b5060028290806001815401808255809150506001900390600052602060002001600090919091909150908161052b9190611231565b505050565b60008054906101000a900473ffffffffffffffffffffffffffffffffffffffff1681565b60006001826040516105669190611017565b9081526020016040518091039020805461057f90610e55565b9050116105c1576040517f08c379a00000000000000000000000000000000000000000000000000000000081526004016105b89061134f565b60405180910390fd5b6001816040516105d19190611017565b908152602001604051809103902060006105eb91906108b2565b60005b600280549050811015610727578160405160200161060c9190611017565b604051602081830303815290604052805190602001206002828154811061063657610635610e86565b5b906000526020600020016040516020016106509190610f58565b604051602081830303815290604052805190602001200361071457600160028054905061067d919061136f565b8110156106df5760026001600280549050610698919061136f565b815481106106a9576106a8610e86565b5b90600052602060002001600282815481106106c7576106c6610e86565b5b9060005260206000200190816106dd91906113ce565b505b60028054806106f1576106f06114b6565b5b60019003818190600052602060002001600061070d91906108b2565b9055610727565b808061071f90610f9e565b9150506105ee565b5050565b600181805160208101820180518482526020830160208501208183528095505050505050600091509050805461076090610e55565b80601f016020809104026020016040519081016040528092919081815260200182805461078c90610e55565b80156107d95780601f106107ae576101008083540402835291602001916107d9565b820191906000526020600020905b8154815290600101906020018083116107bc57829003601f168201915b505050505081565b3373ffffffffffffffffffffffffffffffffffffffff1660008054906101000a900473ffffffffffffffffffffffffffffffffffffffff1673ffffffffffffffffffffffffffffffffffffffff161461086f576040517f08c379a000000000000000000000000000000000000000000000000000000000815260040161086690611557565b60405180910390fd5b806000806101000a81548173ffffffffffffffffffffffffffffffffffffffff021916908373ffffffffffffffffffffffffffffffffffffffff16021790555050565b5080546108be90610e55565b6000825580601f106108d057506108ef565b601f0160209004906000526020600020908101906108ee91906108f2565b5b50565b5b8082111561090b5760008160009055506001016108f3565b5090565b6000604051905090565b600080fd5b600080fd5b6000819050919050565b61093681610923565b811461094157600080fd5b50565b6000813590506109538161092d565b92915050565b60006020828403121561096f5761096e610919565b5b600061097d84828501610944565b91505092915050565b600081519050919050565b600082825260208201905092915050565b60005b838110156109c05780820151818401526020810190506109a5565b60008484015250505050565b6000601f19601f8301169050919050565b60006109e882610986565b6109f28185610991565b9350610a028185602086016109a2565b610a0b816109cc565b840191505092915050565b60006020820190508181036000830152610a3081846109dd565b905092915050565b600081519050919050565b600082825260208201905092915050565b6000819050602082019050919050565b600082825260208201905092915050565b6000610a8082610986565b610a8a8185610a64565b9350610a9a8185602086016109a2565b610aa3816109cc565b840191505092915050565b6000610aba8383610a75565b905092915050565b6000602082019050919050565b6000610ada82610a38565b610ae48185610a43565b935083602082028501610af685610a54565b8060005b85811015610b325784840389528151610b138582610aae565b9450610b1e83610ac2565b925060208a01995050600181019050610afa565b50829750879550505050505092915050565b60006040820190508181036000830152610b5e8185610acf565b90508181036020830152610b728184610acf565b90509392505050565b600080fd5b600080fd5b7f4e487b7100000000000000000000000000000000000000000000000000000000600052604160045260246000fd5b610bbd826109cc565b810181811067ffffffffffffffff82111715610bdc57610bdb610b85565b5b80604052505050565b6000610bef61090f565b9050610bfb8282610bb4565b919050565b600067ffffffffffffffff821115610c1b57610c1a610b85565b5b610c24826109cc565b9050602081019050919050565b82818337600083830152505050565b6000610c53610c4e84610c00565b610be5565b905082815260208101848484011115610c6f57610c6e610b80565b5b610c7a848285610c31565b509392505050565b600082601f830112610c9757610c96610b7b565b5b8135610ca7848260208601610c40565b91505092915050565b60008060408385031215610cc757610cc6610919565b5b600083013567ffffffffffffffff811115610ce557610ce461091e565b5b610cf185828601610c82565b925050602083013567ffffffffffffffff811115610d1257610d1161091e565b5b610d1e85828601610c82565b9150509250929050565b600073ffffffffffffffffffffffffffffffffffffffff82169050919050565b6000610d5382610d28565b9050919050565b610d6381610d48565b82525050565b6000602082019050610d7e6000830184610d5a565b92915050565b600060208284031215610d9a57610d99610919565b5b600082013567ffffffffffffffff811115610db857610db761091e565b5b610dc484828501610c82565b91505092915050565b610dd681610d48565b8114610de157600080fd5b50565b600081359050610df381610dcd565b92915050565b600060208284031215610e0f57610e0e610919565b5b6000610e1d84828501610de4565b91505092915050565b7f4e487b7100000000000000000000000000000000000000000000000000000000600052602260045260246000fd5b60006002820490506001821680610e6d57607f821691505b602082108103610e8057610e7f610e26565b5b50919050565b7f4e487b7100000000000000000000000000000000000000000000000000000000600052603260045260246000fd5b600081905092915050565b60008190508160005260206000209050919050565b60008154610ee281610e55565b610eec8186610eb5565b94506001821660008114610f075760018114610f1c57610f4f565b60ff1983168652811515820286019350610f4f565b610f2585610ec0565b60005b83811015610f4757815481890152600182019150602081019050610f28565b838801955050505b50505092915050565b6000610f648284610ed5565b915081905092915050565b7f4e487b7100000000000000000000000000000000000000000000000000000000600052601160045260246000fd5b6000610fa982610923565b91507fffffffffffffffffffffffffffffffffffffffffffffffffffffffffffffffff8203610fdb57610fda610f6f565b5b600182019050919050565b6000610ff182610986565b610ffb8185610eb5565b935061100b8185602086016109a2565b80840191505092915050565b60006110238284610fe6565b915081905092915050565b7f46696c6520776974682043494420616c72656164792065786973747300000000600082015250565b6000611064601c83610991565b915061106f8261102e565b602082019050919050565b6000602082019050818103600083015261109381611057565b9050919050565b60006020601f8301049050919050565b600082821b905092915050565b6000600883026110e77fffffffffffffffffffffffffffffffffffffffffffffffffffffffffffffffff826110aa565b6110f186836110aa565b95508019841693508086168417925050509392505050565b6000819050919050565b600061112e61112961112484610923565b611109565b610923565b9050919050565b6000819050919050565b61114883611113565b61115c61115482611135565b8484546110b7565b825550505050565b600090565b611171611164565b61117c81848461113f565b505050565b5b818110156111a057611195600082611169565b600181019050611182565b5050565b601f8211156111e5576111b681610ec0565b6111bf8461109a565b810160208510156111ce578190505b6111e26111da8561109a565b830182611181565b50505b505050565b600082821c905092915050565b6000611208600019846008026111ea565b1980831691505092915050565b600061122183836111f7565b9150826002028217905092915050565b61123a82610986565b67ffffffffffffffff81111561125357611252610b85565b5b61125d8254610e55565b6112688282856111a4565b600060209050601f83116001811461129b5760008415611289578287015190505b6112938582611215565b8655506112fb565b601f1984166112a986610ec0565b60005b828110156112d1578489015182556001820191506020850194506020810190506112ac565b868310156112ee57848901516112ea601f8916826111f7565b8355505b6001600288020188555050505b505050505050565b7f46696c6520776974682043494420646f6573206e6f7420657869737400000000600082015250565b6000611339601c83610991565b915061134482611303565b602082019050919050565b600060208201905081810360008301526113688161132c565b9050919050565b600061137a82610923565b915061138583610923565b925082820390508181111561139d5761139c610f6f565b5b92915050565b6000815490506113b281610e55565b9050919050565b60008190508160005260206000209050919050565b8181036113dc5750506114b4565b6113e5826113a3565b67ffffffffffffffff8111156113fe576113fd610b85565b5b6114088254610e55565b6114138282856111a4565b6000601f8311600181146114425760008415611430578287015490505b61143a8582611215565b8655506114ad565b601f198416611450876113b9565b965061145b86610ec0565b60005b828110156114835784890154825560018201915060018501945060208101905061145e565b868310156114a0578489015461149c601f8916826111f7565b8355505b6001600288020188555050505b5050505050505b565b7f4e487b7100000000000000000000000000000000000000000000000000000000600052603160045260246000fd5b7f4f6e6c79206f776e65722063616e2063616c6c20746869732066756e6374696f60008201527f6e00000000000000000000000000000000000000000000000000000000000000602082015250565b6000611541602183610991565b915061154c826114e5565b604082019050919050565b6000602082019050818103600083015261157081611534565b905091905056fea2646970667358221220bce4c99981758e7c71f8852541ea6df7ea78697830092c0356292eb271c0715864736f6c63430008130033",
  "immutableReferences": {},
  "source": "// SPDX-License-Identifier: MIT\npragma solidity >=0.4.22 <0.9.0;\n\ncontract File{\n    // ovaj deo preuzeti od Owned.sol\n    address public owner;\n    //mapping(address => string[]) public files; //user koji je uploadovao file i cid fajla\n    //string[] public files;\n    mapping(string => string) public files; //path=>filename\n    string[] public mapKeys;\n    constructor() {\n        owner = msg.sender;\n    }\n\n    modifier onlyOwner() {\n        require(\n            owner == msg.sender, \n            \"Only owner can call this function\"\n        );\n        _;\n    }\n\n    function transferOwnership(address newOwner) external onlyOwner() {\n        owner = newOwner;\n    }\n\n    function saveCID(string memory cid, string memory filename) external {\n        //TODO: proveriti da li fajl vec postoji sacuvan od strane korisnika\n        //files[msg.sender].push(cid);\n        //files.push(cid);\n        require(bytes(files[cid]).length == 0, \"File with CID already exists\");\n        files[cid] = filename;\n        mapKeys.push(cid);\n    }\n\n    function getFiles() external view returns(string[] memory, string[] memory){\n        string[] memory names = new string[](mapKeys.length);\n\n        for(uint i = 0; i < mapKeys.length; i++) {\n            names[i] = files[mapKeys[i]];\n        }\n        \n        return (mapKeys, names);\n    }\n\n    function deleteFile(string memory cid) external {\n        require(bytes(files[cid]).length > 0, \"File with CID does not exist\");\n        delete files[cid];\n        for (uint i = 0; i < mapKeys.length; i++) {\n            if (keccak256(abi.encodePacked(mapKeys[i])) == keccak256(abi.encodePacked(cid))) {\n                if (i < mapKeys.length - 1) {\n                    mapKeys[i] = mapKeys[mapKeys.length - 1];\n                }\n                mapKeys.pop();\n                break;\n            }\n        }\n    }\n}",
  "sourcePath": "/home/nina/Desktop/master-app/storing-files-on-blockchain/truffle/contracts/File.sol",
  "compiler": {
    "name": "solc",
    "version": "0.8.19+commit.7dd6d404.Emscripten.clang"
  },
  "schemaVersion": "3.4.16",
  "updatedAt": "2023-10-24T15:03:26.486Z",
  "networkType": "ethereum",
  "devdoc": {
    "kind": "dev",
    "methods": {},
    "version": 1
  },
  "userdoc": {
    "kind": "user",
    "methods": {},
    "version": 1
  }
}